:020000040800F2
:10000000B008002045010008B10600088506000878
:10001000AD0600088D010008330B00080000000049
:10002000000000000000000000000000450900087A
:10003000CD010008000000008D070008310A00080B
:100040005F0100085F0100085F0100085F01000810
:100050005F0100085F0100085F0100085F01000800
:100060005F0100085F0100085F0100085F010008F0
:100070005F0100085F0100085F0100085F010008E0
:100080005F0100085F0100085F0100085F010008D0
:100090005F0100085F0100085F0100085F010008C0
:1000A0005F0100085F0100085F0100085F010008B0
:1000B0005F0100085F0100085F0100085F010008A0
:1000C0005F0100085F0100085F0100085F01000890
:1000D0005F010008950A00085F0100085F01000841
:1000E0000D0200085F0100085F0100085F010008C1
:1000F0005F0100085F0100085F0100085F01000860
:100100005F0100085F0100085F0100085F0100084F
:100110005F0100085F0100085F0100085F0100083F
:100120005F0100085F0100085F0100085F0100082F
:10013000DFF80CD000F018F800480047890E0008DE
:10014000B00800200648804706480047FEE7FEE763
:10015000FEE7FEE7FEE7FEE7FEE7FEE7FEE7FEE777
:10016000350A000831010008064C074D06E0E0683A
:1001700040F0010394E8070098471034AC42F6D3EE
:10018000FFF7DAFFE40E0008040F000800BFFEE7E7
:1001900008B50DA00068009000F07AFD00F0CCFAE0
:1001A00000F0C9FC182000F035FB684600F014FB95
:1001B00000F0FEFA012000F00AF800F0CDF800F09F
:1001C00015F900F05DF908BD0134560070470021B3
:1001D00007E04FF4FA5100BF0A1EA1F1010399B2E2
:1001E000FAD1021EA0F1010398B2F2D170470021AA
:1001F00006E00A2100BF0A1EA1F10103D9B2FAD11B
:10020000021EA0F1010398B2F3D1704710B500208F
:100210001D4908704FF4806000F040F890B14FF431
:10022000806000F035F81948007818B9192017498E
:10023000087028E015480078112824D1002000F02B
:1002400009FB20E04FF4006000F028F858B14FF4AB
:10025000006000F01DF80D480078112813D102202D
:1002600000F0F8FA0FE04FF4804000F017F850B1BA
:100270004FF4804000F00CF804480078152802D1B3
:1002800019200249087010BD090000200800002054
:100290000149086070470000140401400146002035
:1002A0000022074B1B6803EA0102054B14331B684D
:1002B0000B4013B10AB1012000E00020704700009C
:1002C00000040140002123498279002A3AD00A46DD
:1002D000126803689A430B461A600A1D1268036885
:1002E0009A430B1D1A60027911440A6803681A4385
:1002F0000A60184A0832126803689A43154B08339B
:100300001A601A1D126803689A43124B0C331A6064
:100310004279102A0ED11A1F126803681A430D4B36
:1003200008331A601A1D126803681A43094B0C330C
:100330001A600DE00749427911440A6803681A43BC
:100340000A6005E0027911440A6803689A430A606A
:1003500070470000000401401FB50121082000F093
:1003600017FA4FF48060ADF80C0028208DF80F00CC
:1003700003208DF80E0003A91A4800F0EBF80A21BB
:10038000012000F0C7F84FF48060FFF781FF4FF4C1
:100390008060019000208DF8080008208DF8090089
:1003A00001208DF80A0001A8FFF78CFF4FF4E060F0
:1003B00000F0B8F928208DF8000001208DF8010028
:1003C00000208DF8020001208DF80300684600F03F
:1003D00071F90548007840F001000349087004B045
:1003E00010BD0000000C01400D0000201FB50121D0
:1003F000082000F0CDF94FF48040ADF80C00282023
:100400008DF80F0003208DF80E0003A91A4800F0A4
:10041000A1F80E21012000F07DF84FF48040FFF795
:1004200037FF4FF48040019000208DF8080008202D
:100430008DF8090001208DF80A0001A8FFF742FF9E
:100440004FF4E06000F06EF928208DF800000120E4
:100450008DF8010000208DF8020001208DF80300C6
:10046000684600F027F90548007840F0020003498B
:10047000087004B010BD0000000C01400D00002009
:100480001FB50121082000F083F94FF40060ADF89A
:100490000C0028208DF80F0003208DF80E0003A912
:1004A0001A4800F057F80B21012000F033F84FF400
:1004B0000060FFF7EDFE4FF40060019000208DF822
:1004C000080008208DF8090001208DF80A0001A815
:1004D000FFF7F8FE4FF4E06000F024F928208DF8D3
:1004E000000001208DF8010000208DF8020001209D
:1004F0008DF80300684600F0DDF80548007840F00C
:1005000004000349087004B010BD0000000C014055
:100510000D00002030B500228B071C0F0F2303FABB
:1005200004F20B4B8C1053F824309343084C8D107D
:1005300044F8253023468C1053F824308C07240FC0
:1005400000FA04F42343024C8D1044F8253030BDEA
:10055000080001402DE9F041024600250026002058
:1005600000230024002791F803C00CF00F0591F838
:1005700003C00CF0100CBCF1000F03D091F802C0C6
:100580004CEA050591F800C0BCF1000F31D01468A9
:1005900000202BE04FF0010C0CFA00F3B1F800C082
:1005A0000CEA03069E4220D183004FF00F0C0CFA98
:1005B00003F7BC4305FA03FC4CEA040491F803C0BA
:1005C000BCF1280F06D14FF0010C0CFA00FCC2F868
:1005D00014C00AE091F803C0BCF1480F05D14FF0F8
:1005E000010C0CFA00FCC2F810C0401C0828D1D342
:1005F0001460B1F800C0BCF1FF0F34DD5468002076
:100600002EE000F1080C4FF0010808FA0CF3B1F8E5
:1006100000C00CEA03069E4221D183004FF00F0C6C
:100620000CFA03F7BC4305FA03FC4CEA040491F806
:1006300003C0BCF1280F05D100F1080C08FA0CF832
:10064000C2F8148091F803C0BCF1480F07D100F143
:10065000080C4FF0010808FA0CF8C2F81080401C92
:100660000828CED35460BDE8F0810246002093688C
:100670000B400BB1012000E0002070474161704742
:100680000161704700BF0748006800F4E060064958
:100690000843001D03490860BFF34F8F00BF00BF30
:1006A000FEE700000CED00E00000FA0500BFFEE7E9
:1006B0007047000070B5002100230F22C47804B3F6
:1006C000154C246804F4E064C4F5E064210AC1F127
:1006D0000403CA40447804FA03F1847814402143A7
:1006E00009010E4C0678A155047804F01F05012479
:1006F000AC4005786D11AD0005F1E025C5F800416D
:1007000009E0047804F01F050124AC40044D06788C
:10071000761145F8264070BD0CED00E000E400E0E5
:1007200080E100E002490143024A11607047000085
:100730000000FA050CED00E010B54FF480511248AE
:10074000FFF79EFF0320FFF752FD4FF480510E4844
:10075000FFF794FF0320FFF74AFD4FF480510A484A
:10076000FFF78EFF2D20FFF742FD4FF48051064822
:10077000FFF784FF302000F04FFB4FF48051024818
:10078000FFF77EFF10BD0000000C01407047000025
:1007900029B1064A92690243044B9A6104E0034A74
:1007A00092698243014B9A61704700000010024039
:1007B00010B53A2000F030FB362000F02DFB012070
:1007C000FFF705FD342000F027FB112001490870D8
:1007D00010BD00000800002010B50446207840B18C
:1007E0002178092000F03CFA0D21072000F038FAAA
:1007F00003E00C21072000F033FA607818B161782B
:10080000052000F02DFAA07818B1A178042000F09E
:1008100027FA10BDFEB504460BA207CA8DE80700F3
:10082000251104F00F06012D00DA01250DEB06015C
:100830002A463E2000F004FB012D03DD1721222073
:1008400000F00EFAFEBD000003171D26375086CDBE
:10085000C5C0000010B50446342000F0C5FA354983
:10086000354A12788854084633490978405C46284E
:1008700003DD3721032000F0F3F92F48007820B181
:10088000012819D0022851D141E024B906210220C3
:1008900000F0E6F90CE0012C04D10621012000F063
:1008A000DFF905E0022C03D10621002000F0D8F981
:1008B00001202149087039E020480078012807D13B
:1008C0000121022000F0CCF902201B4908701DE034
:1008D0001A48007838B90021022000F0C1F902203E
:1008E0001549087012E015480078072807D107213C
:1008F000022000F0B5F902200F49087006E00F4809
:1009000000780B2802D104200B4908700EE03C222D
:100910000B493F2000F044FA02220649C91C3F203F
:1009200000F03EFA00200449087000BF00BFFFF746
:100930003FFF10BD000000200A0000200900002039
:100940004D000020704710B500F002F810BD000007
:100950000CB50020019000903348006840F48030CE
:100960003149086000BF3048006800F40030009052
:100970000198401C0190009818B90198B0F5A06F3B
:10098000F1D12948006800F4003010B10120009036
:1009900001E0002000900098012843D1234800681E
:1009A00040F01000214908600846006820F003006C
:1009B00008600846006840F0020008601A48406875
:1009C000194948600846406848600846406840F455
:1009D000806048600846406820F47C104860084603
:1009E000406840F4E81048600846006840F08070B5
:1009F000086000BF0C48006800F000700028F9D0C3
:100A00000948406820F003000749486008464068EC
:100A100040F00200486000BF0348406800F00C004E
:100A20000828F9D10CBD000000100240002002404F
:100A30007047000010B51348006840F001001149EC
:100A4000086008464068104908400E49486008465A
:100A500000680E4908400B4908600846006820F409
:100A6000802008600846406820F4FE0048604FF48B
:100A70001F008860FFF767FF4FF0006004490860BF
:100A800010BD0000001002400000FFF8FFFFF6FE5E
:100A900008ED00E010B540F225510C4800F01AF8BE
:100AA00098B10A4800F040F8C4B20948006840F222
:100AB000FF3190FBF1F201FB12010548001D445487
:100AC000001F0068401C0249086010BD003801404A
:100AD000AC00002070B50246002400230025002051
:100AE00040F66A16B14200D100BFC1F3421501F0D1
:100AF0001F03012606FA03F3012D02D19689334024
:100B000006E0022D02D1168A334001E0968A334076
:100B10000C12012606FA04F41688344013B10CB105
:100B2000012000E0002070BD01468888C0F3080065
:100B3000704700BFFEE710B506210B2000F090F8CB
:100B400010210D2000F08CF8A7210E2000F088F86D
:100B500062210F2000F084F8F621102000F080F8C8
:100B60008321112000F07CF80321122000F078F896
:100B7000A221132000F074F8F821142000F070F87E
:100B800000210A2000F06CF81521084600F068F8F2
:100B90005621212000F064F81021222000F060F896
:100BA0003F21172000F05CF81821084600F058F8A3
:100BB0004721032000F054F81621192000F050F8C6
:100BC0006C211A2000F04CF803211B2000F048F89B
:100BD00040211C2000F044F891211D2000F040F835
:100BE000E921232000F03CF82A21242000F038F8E5
:100BF0000021252000F034F81F21262000F030F8D5
:100C00005921292000F02CF881212C2000F028F80F
:100C100035212D2000F024F809212E2000F020F8A5
:100C20000E21022000F01CF80E21002000F018F820
:100C30000521072000F014F84421082000F010F8E6
:100C400010BD02E008C8121F08C1002AFAD170477F
:100C50007047002001E001C1121F002AFBD170473C
:100C600070B504460D464FF480510848FFF706FD65
:100C70002646304600F064F82E46304600F060F814
:100C80004FF480510148FFF7FBFC70BD000C0140A0
:100C900008B501210820FFF77BFD4FF43040ADF887
:100CA000000010208DF8030003208DF80200694633
:100CB0000A48FFF74FFC4FF48040ADF800002820B1
:100CC0008DF8030003208DF8020069460348FFF702
:100CD00041FC00200249087008BD0000000C0140E2
:100CE0000C00002070B500244FF400511348FFF7AA
:100CF000C5FC0320FFF77BFA00251BE04FF40051F1
:100D00000E48FFF7BDFC6006040E4FF480410B480F
:100D1000FFF7ABFC08B144F001040220FFF767FACB
:100D20004FF400510548FFF7A9FC0220FFF75FFAD6
:100D3000681CC5B2082DE1DB204670BD000C0140E7
:100D400070B50446002521E04FF400511348FFF729
:100D500095FC04F08000802804D101020F48FFF7C1
:100D60008FFC04E04FF400410C48FFF787FC60065D
:100D7000040E0320FFF73BFA4FF400510748FFF73A
:100D80007FFC0220FFF733FA681CC5B2082DDBDBBD
:100D90004FF400510148FFF771FC70BD000C014099
:100DA0002DE9F04105460E4617464FF480510D4897
:100DB000FFF764FC45F0C0084046FFF7C1FF002480
:100DC00006E0FFF78FFF804606F80480601CC4B27F
:100DD000BC42F6DB4FF480510248FFF751FCBDE8FE
:100DE000F0810000000C014070B504464FF48051C2
:100DF0000848FFF743FC44F0C0052846FFF7A0FF72
:100E0000FFF770FF05464FF480510248FFF738FCAA
:100E1000284670BD000C014070B504464FF4805167
:100E20000648FFF72BFC25462846FFF789FF4FF4BD
:100E300080510248FFF724FC70BD0000000C014007
:100E40002DE9F04105460E4617464FF480510D48F6
:100E5000FFF714FC45F040084046FFF771FF0024FF
:100E600006E016F804804046FFF76AFF601CC4B233
:100E7000BC42F6DB4FF480510248FFF701FCBDE8AD
:100E8000F0810000000C01401348806940F0100020
:100E9000114988611148406820F470000F4948608A
:100EA0000846406840F440104860FFF771F911E0CF
:100EB0000B48007858B10948C06880F400500749D1
:100EC000C86000200649087048708870C8700A2001
:100ED000FFF77DF9ECE70000001002400010014030
:100EE0004D000020040F000800000020100000004A
:100EF000420C0008140F000810000020A008000099
:100F0000520C00080000000000000000000000007B
:040F100000000000DD
:0400000508000131BD
:00000001FF
